{
  "contractName": "nftContract",
  "abi": [
    {
      "inputs": [],
      "stateMutability": "nonpayable",
      "type": "constructor"
    },
    {
      "anonymous": false,
      "inputs": [
        {
          "indexed": true,
          "internalType": "address",
          "name": "owner",
          "type": "address"
        },
        {
          "indexed": true,
          "internalType": "address",
          "name": "approved",
          "type": "address"
        },
        {
          "indexed": true,
          "internalType": "uint256",
          "name": "tokenId",
          "type": "uint256"
        }
      ],
      "name": "Approval",
      "type": "event"
    },
    {
      "anonymous": false,
      "inputs": [
        {
          "indexed": true,
          "internalType": "address",
          "name": "owner",
          "type": "address"
        },
        {
          "indexed": true,
          "internalType": "address",
          "name": "operator",
          "type": "address"
        },
        {
          "indexed": false,
          "internalType": "bool",
          "name": "approved",
          "type": "bool"
        }
      ],
      "name": "ApprovalForAll",
      "type": "event"
    },
    {
      "anonymous": false,
      "inputs": [
        {
          "indexed": true,
          "internalType": "address",
          "name": "from",
          "type": "address"
        },
        {
          "indexed": true,
          "internalType": "address",
          "name": "to",
          "type": "address"
        },
        {
          "indexed": true,
          "internalType": "uint256",
          "name": "tokenId",
          "type": "uint256"
        }
      ],
      "name": "Transfer",
      "type": "event"
    },
    {
      "anonymous": false,
      "inputs": [
        {
          "indexed": true,
          "internalType": "uint256",
          "name": "id",
          "type": "uint256"
        },
        {
          "indexed": false,
          "internalType": "string",
          "name": "transactionType",
          "type": "string"
        },
        {
          "indexed": false,
          "internalType": "address",
          "name": "fromAddress",
          "type": "address"
        },
        {
          "indexed": false,
          "internalType": "address",
          "name": "toAddress",
          "type": "address"
        },
        {
          "indexed": false,
          "internalType": "uint256",
          "name": "value",
          "type": "uint256"
        }
      ],
      "name": "nftTransaction",
      "type": "event"
    },
    {
      "inputs": [
        {
          "internalType": "address",
          "name": "to",
          "type": "address"
        },
        {
          "internalType": "uint256",
          "name": "tokenId",
          "type": "uint256"
        }
      ],
      "name": "approve",
      "outputs": [],
      "stateMutability": "nonpayable",
      "type": "function"
    },
    {
      "inputs": [
        {
          "internalType": "address",
          "name": "owner",
          "type": "address"
        }
      ],
      "name": "balanceOf",
      "outputs": [
        {
          "internalType": "uint256",
          "name": "",
          "type": "uint256"
        }
      ],
      "stateMutability": "view",
      "type": "function",
      "constant": true
    },
    {
      "inputs": [
        {
          "internalType": "uint256",
          "name": "tokenId",
          "type": "uint256"
        }
      ],
      "name": "getApproved",
      "outputs": [
        {
          "internalType": "address",
          "name": "",
          "type": "address"
        }
      ],
      "stateMutability": "view",
      "type": "function",
      "constant": true
    },
    {
      "inputs": [
        {
          "internalType": "address",
          "name": "owner",
          "type": "address"
        },
        {
          "internalType": "address",
          "name": "operator",
          "type": "address"
        }
      ],
      "name": "isApprovedForAll",
      "outputs": [
        {
          "internalType": "bool",
          "name": "",
          "type": "bool"
        }
      ],
      "stateMutability": "view",
      "type": "function",
      "constant": true
    },
    {
      "inputs": [],
      "name": "maxSupply",
      "outputs": [
        {
          "internalType": "uint256",
          "name": "",
          "type": "uint256"
        }
      ],
      "stateMutability": "view",
      "type": "function",
      "constant": true
    },
    {
      "inputs": [],
      "name": "name",
      "outputs": [
        {
          "internalType": "string",
          "name": "",
          "type": "string"
        }
      ],
      "stateMutability": "view",
      "type": "function",
      "constant": true
    },
    {
      "inputs": [
        {
          "internalType": "uint256",
          "name": "",
          "type": "uint256"
        }
      ],
      "name": "nfts",
      "outputs": [
        {
          "internalType": "string",
          "name": "name",
          "type": "string"
        },
        {
          "internalType": "string",
          "name": "cid",
          "type": "string"
        },
        {
          "internalType": "string",
          "name": "rarity",
          "type": "string"
        },
        {
          "internalType": "bool",
          "name": "isOnSale",
          "type": "bool"
        },
        {
          "internalType": "uint256",
          "name": "sellPrice",
          "type": "uint256"
        },
        {
          "internalType": "bool",
          "name": "isBiddable",
          "type": "bool"
        },
        {
          "internalType": "uint256",
          "name": "maxBid",
          "type": "uint256"
        },
        {
          "internalType": "address",
          "name": "maxBidder",
          "type": "address"
        },
        {
          "internalType": "bool",
          "name": "isOccupied",
          "type": "bool"
        }
      ],
      "stateMutability": "view",
      "type": "function",
      "constant": true
    },
    {
      "inputs": [],
      "name": "owner",
      "outputs": [
        {
          "internalType": "address",
          "name": "",
          "type": "address"
        }
      ],
      "stateMutability": "view",
      "type": "function",
      "constant": true
    },
    {
      "inputs": [
        {
          "internalType": "uint256",
          "name": "tokenId",
          "type": "uint256"
        }
      ],
      "name": "ownerOf",
      "outputs": [
        {
          "internalType": "address",
          "name": "",
          "type": "address"
        }
      ],
      "stateMutability": "view",
      "type": "function",
      "constant": true
    },
    {
      "inputs": [
        {
          "internalType": "address",
          "name": "from",
          "type": "address"
        },
        {
          "internalType": "address",
          "name": "to",
          "type": "address"
        },
        {
          "internalType": "uint256",
          "name": "tokenId",
          "type": "uint256"
        }
      ],
      "name": "safeTransferFrom",
      "outputs": [],
      "stateMutability": "nonpayable",
      "type": "function"
    },
    {
      "inputs": [
        {
          "internalType": "address",
          "name": "from",
          "type": "address"
        },
        {
          "internalType": "address",
          "name": "to",
          "type": "address"
        },
        {
          "internalType": "uint256",
          "name": "tokenId",
          "type": "uint256"
        },
        {
          "internalType": "bytes",
          "name": "data",
          "type": "bytes"
        }
      ],
      "name": "safeTransferFrom",
      "outputs": [],
      "stateMutability": "nonpayable",
      "type": "function"
    },
    {
      "inputs": [
        {
          "internalType": "address",
          "name": "operator",
          "type": "address"
        },
        {
          "internalType": "bool",
          "name": "approved",
          "type": "bool"
        }
      ],
      "name": "setApprovalForAll",
      "outputs": [],
      "stateMutability": "nonpayable",
      "type": "function"
    },
    {
      "inputs": [
        {
          "internalType": "bytes4",
          "name": "interfaceId",
          "type": "bytes4"
        }
      ],
      "name": "supportsInterface",
      "outputs": [
        {
          "internalType": "bool",
          "name": "",
          "type": "bool"
        }
      ],
      "stateMutability": "view",
      "type": "function",
      "constant": true
    },
    {
      "inputs": [],
      "name": "symbol",
      "outputs": [
        {
          "internalType": "string",
          "name": "",
          "type": "string"
        }
      ],
      "stateMutability": "view",
      "type": "function",
      "constant": true
    },
    {
      "inputs": [
        {
          "internalType": "uint256",
          "name": "index",
          "type": "uint256"
        }
      ],
      "name": "tokenByIndex",
      "outputs": [
        {
          "internalType": "uint256",
          "name": "",
          "type": "uint256"
        }
      ],
      "stateMutability": "view",
      "type": "function",
      "constant": true
    },
    {
      "inputs": [
        {
          "internalType": "address",
          "name": "owner",
          "type": "address"
        },
        {
          "internalType": "uint256",
          "name": "index",
          "type": "uint256"
        }
      ],
      "name": "tokenOfOwnerByIndex",
      "outputs": [
        {
          "internalType": "uint256",
          "name": "",
          "type": "uint256"
        }
      ],
      "stateMutability": "view",
      "type": "function",
      "constant": true
    },
    {
      "inputs": [
        {
          "internalType": "uint256",
          "name": "tokenId",
          "type": "uint256"
        }
      ],
      "name": "tokenURI",
      "outputs": [
        {
          "internalType": "string",
          "name": "",
          "type": "string"
        }
      ],
      "stateMutability": "view",
      "type": "function",
      "constant": true
    },
    {
      "inputs": [],
      "name": "totalSupply",
      "outputs": [
        {
          "internalType": "uint256",
          "name": "",
          "type": "uint256"
        }
      ],
      "stateMutability": "view",
      "type": "function",
      "constant": true
    },
    {
      "inputs": [
        {
          "internalType": "address",
          "name": "from",
          "type": "address"
        },
        {
          "internalType": "address",
          "name": "to",
          "type": "address"
        },
        {
          "internalType": "uint256",
          "name": "tokenId",
          "type": "uint256"
        }
      ],
      "name": "transferFrom",
      "outputs": [],
      "stateMutability": "nonpayable",
      "type": "function"
    },
    {
      "inputs": [
        {
          "internalType": "address",
          "name": "",
          "type": "address"
        }
      ],
      "name": "users",
      "outputs": [
        {
          "internalType": "uint256",
          "name": "property",
          "type": "uint256"
        },
        {
          "internalType": "string",
          "name": "username",
          "type": "string"
        },
        {
          "internalType": "uint256",
          "name": "userBalance",
          "type": "uint256"
        }
      ],
      "stateMutability": "view",
      "type": "function",
      "constant": true
    },
    {
      "inputs": [
        {
          "internalType": "string",
          "name": "_username",
          "type": "string"
        }
      ],
      "name": "setUsername",
      "outputs": [],
      "stateMutability": "nonpayable",
      "type": "function"
    },
    {
      "inputs": [
        {
          "internalType": "uint256",
          "name": "_propertyTokenId",
          "type": "uint256"
        }
      ],
      "name": "occupyProperty",
      "outputs": [],
      "stateMutability": "nonpayable",
      "type": "function"
    },
    {
      "inputs": [
        {
          "internalType": "uint256",
          "name": "_tokenId",
          "type": "uint256"
        }
      ],
      "name": "occupySingleProperty",
      "outputs": [],
      "stateMutability": "nonpayable",
      "type": "function"
    },
    {
      "inputs": [],
      "name": "vacateProperty",
      "outputs": [],
      "stateMutability": "nonpayable",
      "type": "function"
    },
    {
      "inputs": [
        {
          "internalType": "address",
          "name": "_owner",
          "type": "address"
        }
      ],
      "name": "tokensOfOwner",
      "outputs": [
        {
          "internalType": "uint256[]",
          "name": "",
          "type": "uint256[]"
        }
      ],
      "stateMutability": "view",
      "type": "function",
      "constant": true
    },
    {
      "inputs": [
        {
          "internalType": "uint256",
          "name": "_tokenId",
          "type": "uint256"
        },
        {
          "internalType": "uint256",
          "name": "_sellPrice",
          "type": "uint256"
        }
      ],
      "name": "putOnSale",
      "outputs": [],
      "stateMutability": "nonpayable",
      "type": "function"
    },
    {
      "inputs": [
        {
          "internalType": "uint256",
          "name": "_tokenId",
          "type": "uint256"
        }
      ],
      "name": "cancelSale",
      "outputs": [],
      "stateMutability": "nonpayable",
      "type": "function"
    },
    {
      "inputs": [
        {
          "internalType": "uint256",
          "name": "_tokenId",
          "type": "uint256"
        }
      ],
      "name": "buyFromSale",
      "outputs": [],
      "stateMutability": "payable",
      "type": "function",
      "payable": true
    },
    {
      "inputs": [
        {
          "internalType": "uint256",
          "name": "_tokenId",
          "type": "uint256"
        }
      ],
      "name": "putOnAuction",
      "outputs": [],
      "stateMutability": "nonpayable",
      "type": "function"
    },
    {
      "inputs": [
        {
          "internalType": "uint256",
          "name": "_tokenId",
          "type": "uint256"
        }
      ],
      "name": "cancelAuction",
      "outputs": [],
      "stateMutability": "nonpayable",
      "type": "function"
    },
    {
      "inputs": [
        {
          "internalType": "uint256",
          "name": "_tokenId",
          "type": "uint256"
        }
      ],
      "name": "bid",
      "outputs": [],
      "stateMutability": "payable",
      "type": "function",
      "payable": true
    },
    {
      "inputs": [
        {
          "internalType": "uint256",
          "name": "_tokenId",
          "type": "uint256"
        }
      ],
      "name": "acceptHighestBid",
      "outputs": [],
      "stateMutability": "nonpayable",
      "type": "function"
    },
    {
      "inputs": [
        {
          "internalType": "uint256",
          "name": "_tokenId",
          "type": "uint256"
        }
      ],
      "name": "withdrawBid",
      "outputs": [],
      "stateMutability": "nonpayable",
      "type": "function"
    },
    {
      "inputs": [
        {
          "internalType": "uint256",
          "name": "_amount",
          "type": "uint256"
        }
      ],
      "name": "withdrawMoney",
      "outputs": [],
      "stateMutability": "nonpayable",
      "type": "function"
    },
    {
      "inputs": [
        {
          "internalType": "string",
          "name": "_name",
          "type": "string"
        },
        {
          "internalType": "string",
          "name": "_cid",
          "type": "string"
        },
        {
          "internalType": "string",
          "name": "_rarity",
          "type": "string"
        }
      ],
      "name": "createProperty",
      "outputs": [],
      "stateMutability": "nonpayable",
      "type": "function"
    },
    {
      "inputs": [
        {
          "internalType": "uint256",
          "name": "_maxSupply",
          "type": "uint256"
        }
      ],
      "name": "setMaxSupply",
      "outputs": [],
      "stateMutability": "nonpayable",
      "type": "function"
    }
  ],
  "bytecode": "0x60806040523480156200001157600080fd5b506040518060400160405280600b81526020016a1b999d10dbdb9d1c9858dd60aa1b815250604051806040016040528060048152602001634e46544360e01b815250816000908162000064919062000138565b50600162000073828262000138565b5050600d80546001600160a01b03191633179055506064600e5562000204565b634e487b7160e01b600052604160045260246000fd5b600181811c90821680620000be57607f821691505b602082108103620000df57634e487b7160e01b600052602260045260246000fd5b50919050565b601f8211156200013357600081815260208120601f850160051c810160208610156200010e5750805b601f850160051c820191505b818110156200012f578281556001016200011a565b5050505b505050565b81516001600160401b0381111562000154576200015462000093565b6200016c81620001658454620000a9565b84620000e5565b602080601f831160018114620001a457600084156200018b5750858301515b600019600386901b1c1916600185901b1785556200012f565b600085815260208120601f198616915b82811015620001d557888601518255948401946001909101908401620001b4565b5085821015620001f45787850151600019600388901b60f8161c191681555b5050505050600190811b01905550565b614c3180620002146000396000f3fe60806040526004361061020f5760003560e01c806370a0823111610118578063b88d4fde116100a0578063e985e9c51161006f578063e985e9c514610633578063ea7a43ba1461067c578063ed59313a14610691578063edff5d7d146106b1578063fc84afb4146106d157600080fd5b8063b88d4fde146105bd578063bd94b005146105dd578063c87b56dd146105fd578063d5abeb011461061d57600080fd5b806395d89b41116100e757806395d89b411461051957806396b5a7551461052e578063a22cb4651461054e578063a87430ba1461056e578063aeb0e2fa1461059d57600080fd5b806370a082311461048c5780638462151c146104ac5780638652f38f146104d95780638da5cb5b146104f957600080fd5b80632f745c591161019b578063454a2ab31161016a578063454a2ab3146103f95780634f6ccce71461040c578063548769211461042c5780636352211e1461044c5780636f8b44b01461046c57600080fd5b80632f745c591461037957806336f7992b146103995780633baa667d146103b957806342842e0e146103d957600080fd5b80630eaaf4c8116101e25780630eaaf4c8146102c557806318160ddd146102e557806323b872dd14610304578063265aa621146103245780632c69f97c1461035957600080fd5b806301ffc9a71461021457806306fdde0314610249578063081812fc1461026b578063095ea7b3146102a3575b600080fd5b34801561022057600080fd5b5061023461022f3660046143c4565b6106e4565b60405190151581526020015b60405180910390f35b34801561025557600080fd5b5061025e61070f565b6040516102409190614431565b34801561027757600080fd5b5061028b610286366004614444565b6107a1565b6040516001600160a01b039091168152602001610240565b3480156102af57600080fd5b506102c36102be366004614472565b6107c8565b005b3480156102d157600080fd5b506102c36102e0366004614444565b6108e2565b3480156102f157600080fd5b506008545b604051908152602001610240565b34801561031057600080fd5b506102c361031f36600461449e565b610b74565b34801561033057600080fd5b5061034461033f366004614444565b610ba5565b604051610240999897969594939291906144df565b34801561036557600080fd5b506102c3610374366004614444565b610db1565b34801561038557600080fd5b506102f6610394366004614472565b61136f565b3480156103a557600080fd5b506102c36103b436600461455b565b611405565b3480156103c557600080fd5b506102c36103d4366004614444565b6116e7565b3480156103e557600080fd5b506102c36103f436600461449e565b611947565b6102c3610407366004614444565b611962565b34801561041857600080fd5b506102f6610427366004614444565b611d78565b34801561043857600080fd5b506102c3610447366004614444565b611e0b565b34801561045857600080fd5b5061028b610467366004614444565b611ef3565b34801561047857600080fd5b506102c3610487366004614444565b611f53565b34801561049857600080fd5b506102f66104a736600461457d565b612029565b3480156104b857600080fd5b506104cc6104c736600461457d565b6120af565b604051610240919061459a565b3480156104e557600080fd5b506102c36104f4366004614444565b612171565b34801561050557600080fd5b50600d5461028b906001600160a01b031681565b34801561052557600080fd5b5061025e6123f2565b34801561053a57600080fd5b506102c3610549366004614444565b612401565b34801561055a57600080fd5b506102c36105693660046145de565b61276f565b34801561057a57600080fd5b5061058e61058936600461457d565b61277e565b6040516102409392919061461c565b3480156105a957600080fd5b506102c36105b83660046146f1565b612829565b3480156105c957600080fd5b506102c36105d8366004614779565b612b6c565b3480156105e957600080fd5b506102c36105f8366004614444565b612b9e565b34801561060957600080fd5b5061025e610618366004614444565b612dfb565b34801561062957600080fd5b506102f6600e5481565b34801561063f57600080fd5b5061023461064e3660046147f9565b6001600160a01b03918216600090815260056020908152604080832093909416825291909152205460ff1690565b34801561068857600080fd5b506102c3612e6f565b34801561069d57600080fd5b506102c36106ac366004614827565b612f50565b3480156106bd57600080fd5b506102c36106cc366004614444565b612f6c565b6102c36106df366004614444565b61323e565b60006001600160e01b0319821663780e9d6360e01b1480610709575061070982613861565b92915050565b60606000805461071e9061485c565b80601f016020809104026020016040519081016040528092919081815260200182805461074a9061485c565b80156107975780601f1061076c57610100808354040283529160200191610797565b820191906000526020600020905b81548152906001019060200180831161077a57829003601f168201915b5050505050905090565b60006107ac826138b1565b506000908152600460205260409020546001600160a01b031690565b60006107d382611ef3565b9050806001600160a01b0316836001600160a01b0316036108455760405162461bcd60e51b815260206004820152602160248201527f4552433732313a20617070726f76616c20746f2063757272656e74206f776e656044820152603960f91b60648201526084015b60405180910390fd5b336001600160a01b03821614806108615750610861813361064e565b6108d35760405162461bcd60e51b815260206004820152603d60248201527f4552433732313a20617070726f76652063616c6c6572206973206e6f7420746f60448201527f6b656e206f776e6572206f7220617070726f76656420666f7220616c6c000000606482015260840161083c565b6108dd8383613913565b505050565b600c6108ef6001836148a6565b815481106108ff576108ff6148b9565b60009182526020909120600890910201600701546001600160a01b031633146109835760405162461bcd60e51b815260206004820152603060248201527f596f75206d75737420626520746865206d61782062696464657220746f20776960448201526f74686472617720796f7572206269642160801b606482015260840161083c565b6000600c6109926001846148a6565b815481106109a2576109a26148b9565b9060005260206000209060080201600601549050610a41600a6000600c6001866109cc91906148a6565b815481106109dc576109dc6148b9565b60009182526020808320600760089093020191909101546001600160a01b03168352820192909252604001902060020154600c610a1a6001866148a6565b81548110610a2a57610a2a6148b9565b906000526020600020906008020160060154613981565b600a6000600c610a526001876148a6565b81548110610a6257610a626148b9565b60009182526020808320600760089093020191909101546001600160a01b03168352820192909252604001812060020191909155600c610aa36001856148a6565b81548110610ab357610ab36148b9565b60009182526020822060066008909202010191909155600c610ad66001856148a6565b81548110610ae657610ae66148b9565b6000918252602080832060089290920290910160070180546001600160a01b0319166001600160a01b039490941693909317909255604080516080808252600d908201526c2134b2102bb4ba34323930bbb760991b60a08201523393810193909352820152606081018290528290600080516020614bdc8339815191529060c0015b60405180910390a25050565b610b7e33826139a0565b610b9a5760405162461bcd60e51b815260040161083c906148cf565b6108dd838383613a1f565b600c8181548110610bb557600080fd5b9060005260206000209060080201600091509050806000018054610bd89061485c565b80601f0160208091040260200160405190810160405280929190818152602001828054610c049061485c565b8015610c515780601f10610c2657610100808354040283529160200191610c51565b820191906000526020600020905b815481529060010190602001808311610c3457829003601f168201915b505050505090806001018054610c669061485c565b80601f0160208091040260200160405190810160405280929190818152602001828054610c929061485c565b8015610cdf5780601f10610cb457610100808354040283529160200191610cdf565b820191906000526020600020905b815481529060010190602001808311610cc257829003601f168201915b505050505090806002018054610cf49061485c565b80601f0160208091040260200160405190810160405280929190818152602001828054610d209061485c565b8015610d6d5780601f10610d4257610100808354040283529160200191610d6d565b820191906000526020600020905b815481529060010190602001808311610d5057829003601f168201915b5050506003840154600485015460058601546006870154600790970154959660ff938416969295509083169350916001600160a01b03821691600160a01b90041689565b6040516331a9108f60e11b8152600481018290523090636352211e90602401602060405180830381865afa158015610ded573d6000803e3d6000fd5b505050506040513d601f19601f82011682018060405250810190610e11919061491c565b6001600160a01b0316336001600160a01b031614610e975760405162461bcd60e51b815260206004820152603d60248201527f596f75206e65656420746f206265206f776e6572206f6620746869732069746560448201527f6d2c20746f20616363657074206974732068696768657374206269642e000000606482015260840161083c565b600c610ea46001836148a6565b81548110610eb457610eb46148b9565b600091825260209091206005600890920201015460ff161515600114610f425760405162461bcd60e51b815260206004820152603a60248201527f4974656d2073686f756c64206265206269646461626c6520666f7220796f752060448201527f746f20616363657074206974732068696768657374206269642e000000000000606482015260840161083c565b6000600c610f516001846148a6565b81548110610f6157610f616148b9565b90600052602060002090600802016006015411610fe65760405162461bcd60e51b815260206004820152603e60248201527f4d617820626964206d757374206265206d6f7265207468616e203020746f206160448201527f63636570742069742c2063757272656e746c79206974206973206e6f74210000606482015260840161083c565b33600c610ff46001846148a6565b81548110611004576110046148b9565b60009182526020909120600760089092020101546001600160a01b0316036110865760405162461bcd60e51b815260206004820152602f60248201527f4d6178206269646465722063616e6e6f74206265207468652073616d6520706560448201526e72736f6e2061732073656c6c65722160881b606482015260840161083c565b6000600c6110956001846148a6565b815481106110a5576110a56148b9565b600091825260208220600760089092020101546001600160a01b03169150600c6110d06001856148a6565b815481106110e0576110e06148b9565b60009182526020909120600660089092020101549050306342842e0e33600c61110a6001886148a6565b8154811061111a5761111a6148b9565b600091825260209091206008909102016007015460405160e084901b6001600160e01b03191681526001600160a01b0392831660048201529116602482015260448101869052606401600060405180830381600087803b15801561117d57600080fd5b505af1158015611191573d6000803e3d6000fd5b5050336000908152600a60205260409020600201546111ba92509050600c610a1a6001876148a6565b336000908152600a6020526040812060020191909155600c6111dd6001866148a6565b815481106111ed576111ed6148b9565b60009182526020822060066008909202010191909155600c6112106001866148a6565b81548110611220576112206148b9565b6000918252602082206008919091020160070180546001600160a01b0319166001600160a01b039390931692909217909155600c61125f6001866148a6565b8154811061126f5761126f6148b9565b60009182526020822060089190910201600501805460ff191692151592909217909155600c61129f6001866148a6565b815481106112af576112af6148b9565b60009182526020822060089190910201600301805460ff191692151592909217909155600c6112df6001866148a6565b815481106112ef576112ef6148b9565b6000918252602091829020600460089092020101919091556040805160808082526011908201527029b7b63210233937b69020bab1ba34b7b760791b60a082015233928101929092526001600160a01b03841690820152606081018290528390600080516020614bdc8339815191529060c00160405180910390a2505050565b600061137a83612029565b82106113dc5760405162461bcd60e51b815260206004820152602b60248201527f455243373231456e756d657261626c653a206f776e657220696e646578206f7560448201526a74206f6620626f756e647360a81b606482015260840161083c565b506001600160a01b03919091166000908152600660209081526040808320938352929052205490565b6040516331a9108f60e11b8152600481018390523090636352211e90602401602060405180830381865afa158015611441573d6000803e3d6000fd5b505050506040513d601f19601f82011682018060405250810190611465919061491c565b6001600160a01b0316336001600160a01b0316146114fa5760405162461bcd60e51b815260206004820152604660248201527f596f752063616e6e6f74207075742074686973206974656d206f6e2073616c6560448201527f2c206265636175736520796f7520617265206e6f7420746865206f776e65722060648201526537b31034ba1760d11b608482015260a40161083c565b600c6115076001846148a6565b81548110611517576115176148b9565b600091825260209091206003600890920201015460ff161561157b5760405162461bcd60e51b815260206004820152601860248201527f4974656d20697320616c7265616479206f6e2073616c65210000000000000000604482015260640161083c565b600c6115886001846148a6565b81548110611598576115986148b9565b6000918252602090912060089091020160070154600160a01b900460ff161561161b5760405162461bcd60e51b815260206004820152602f60248201527f596f75206d757374207661636174652069742066697273742c207468656e207960448201526e37ba9031b0b71039b2b6361034ba1760891b606482015260840161083c565b6001600c61162982856148a6565b81548110611639576116396148b9565b60009182526020909120600890910201600301805460ff191691151591909117905580600c6116696001856148a6565b81548110611679576116796148b9565b90600052602060002090600802016004018190555061169830836107c8565b604080516080808252600790820152664f6e2053616c6560c81b60a0820152336020820152600091810191909152606081018290528290600080516020614bdc8339815191529060c001610b68565b8015806117045750336116f982611ef3565b6001600160a01b0316145b6117485760405162461bcd60e51b81526020600482015260156024820152743cb7ba9036bab9ba103132903a34329037bbb732b960591b604482015260640161083c565b8015806117865750600c61175d6001836148a6565b8154811061176d5761176d6148b9565b600091825260209091206003600890920201015460ff16155b6117e25760405162461bcd60e51b815260206004820152602760248201527f70726f7065727479206f6e2073616c652c20796f752063616e6e6f74206f63636044820152667570792069742160c81b606482015260840161083c565b8015806118205750600c6117f76001836148a6565b81548110611807576118076148b9565b600091825260209091206005600890920201015460ff16155b61187b5760405162461bcd60e51b815260206004820152602660248201527f70726f7065727479206f6e206269642c20796f752063616e6e6f74206f63637560448201526570792069742160d01b606482015260840161083c565b336000908152600a6020526040902054156118e857336000908152600a6020526040812054600c906118af906001906148a6565b815481106118bf576118bf6148b9565b906000526020600020906008020160070160146101000a81548160ff0219169083151502179055505b8015611935576001600c6118fc82846148a6565b8154811061190c5761190c6148b9565b906000526020600020906008020160070160146101000a81548160ff0219169083151502179055505b336000908152600a6020526040902055565b6108dd83838360405180602001604052806000815250612b6c565b600034116119b25760405162461bcd60e51b815260206004820152601a60248201527f596f7520646964206e6f742073656e6420616e79206d6f6e6579000000000000604482015260640161083c565b600c6119bf6001836148a6565b815481106119cf576119cf6148b9565b600091825260209091206005600890920201015460ff161515600114611a475760405162461bcd60e51b815260206004820152602760248201527f4974656d20796f7520747269656420746f206269642c206973206e6f74206269604482015266646461626c652160c81b606482015260840161083c565b600c611a546001836148a6565b81548110611a6457611a646148b9565b906000526020600020906008020160060154341015611aeb5760405162461bcd60e51b815260206004820152603a60248201527f54686520616d6f756e7420796f7520747269656420746f206269642c2069732060448201527f6c657373207468616e2063757272656e74206d6178206269642e000000000000606482015260840161083c565b6040516331a9108f60e11b8152600481018290523090636352211e90602401602060405180830381865afa158015611b27573d6000803e3d6000fd5b505050506040513d601f19601f82011682018060405250810190611b4b919061491c565b6001600160a01b03163303611ba25760405162461bcd60e51b815260206004820152601d60248201527f596f752063616e6e6f742062696420796f7572206f776e206974656d2e000000604482015260640161083c565b6000600c611bb16001846148a6565b81548110611bc157611bc16148b9565b9060005260206000209060080201600601541115611c8e57611c3b600a6000600c611bed6001866148a6565b81548110611bfd57611bfd6148b9565b60009182526020808320600760089093020191909101546001600160a01b03168352820192909252604001902060020154600c610a1a6001856148a6565b600a6000600c611c4c6001866148a6565b81548110611c5c57611c5c6148b9565b60009182526020808320600760089093020191909101546001600160a01b031683528201929092526040019020600201555b34600c611c9c6001846148a6565b81548110611cac57611cac6148b9565b600091825260209091206006600890920201015533600c611cce6001846148a6565b81548110611cde57611cde6148b9565b906000526020600020906008020160070160006101000a8154816001600160a01b0302191690836001600160a01b0316021790555080600080516020614bdc83398151915233611d2d84611ef3565b60408051608080825260069082015265109a5919195960d21b60a08201526001600160a01b039384166020820152929091169082015234606082015260c0015b60405180910390a250565b6000611d8360085490565b8210611de65760405162461bcd60e51b815260206004820152602c60248201527f455243373231456e756d657261626c653a20676c6f62616c20696e646578206f60448201526b7574206f6620626f756e647360a01b606482015260840161083c565b60088281548110611df957611df96148b9565b90600052602060002001549050919050565b336000908152600a6020526040902060020154811115611e8c5760405162461bcd60e51b815260206004820152603660248201527f596f7520646f206e6f74206861766520656e6f7567682062616c616e636520746044820152751bc81dda5d1a191c985dc81d1a1a5cc8185b5bdd5b9d60521b606482015260840161083c565b336000908152600a6020526040902060020154611ea98183613b90565b336000818152600a60205260408082206002019390935591519091829185156108fc0291869190818181858888f19350505050158015611eed573d6000803e3d6000fd5b50505050565b6000818152600260205260408120546001600160a01b0316806107095760405162461bcd60e51b8152602060048201526018602482015277115490cdcc8c4e881a5b9d985b1a59081d1bdad95b88125160421b604482015260640161083c565b600d546001600160a01b03163314611fad5760405162461bcd60e51b815260206004820152601e60248201527f4f6e6c79206f776e65722063616e20736574206d617820737570706c792e0000604482015260640161083c565b600c5481116120245760405162461bcd60e51b815260206004820152603760248201527f596f752063616e6e6f7420736574206d617820737570706c79206c657373207460448201527f68616e20637265617465642070726f706572746965732e000000000000000000606482015260840161083c565b600e55565b60006001600160a01b0382166120935760405162461bcd60e51b815260206004820152602960248201527f4552433732313a2061646472657373207a65726f206973206e6f7420612076616044820152683634b21037bbb732b960b91b606482015260840161083c565b506001600160a01b031660009081526003602052604090205490565b606060006120bc83612029565b9050806000036120e05760408051600080825260208201909252905b509392505050565b60008167ffffffffffffffff8111156120fb576120fb614645565b604051908082528060200260200182016040528015612124578160200160208202803683370190505b50905060005b828110156120d85761213c858261136f565b82828151811061214e5761214e6148b9565b60209081029190910101528061216381614939565b91505061212a565b50919050565b3361217b82611ef3565b6001600160a01b0316146121f75760405162461bcd60e51b815260206004820152603c60248201527f596f7520617265206e6f7420746865206f776e6572206f66207468697320697460448201527f656d2c20736f20796f752063616e6e6f74206f63637570792069742e00000000606482015260840161083c565b600c6122046001836148a6565b81548110612214576122146148b9565b600091825260209091206003600890920201015460ff161561228f5760405162461bcd60e51b815260206004820152602e60248201527f596f752063616e6e6f74206f636375707920616e206974656d207768696c652060448201526d34ba1034b99037b71039b0b6329760911b606482015260840161083c565b600c61229c6001836148a6565b815481106122ac576122ac6148b9565b600091825260209091206005600890920201015460ff161561232a5760405162461bcd60e51b815260206004820152603160248201527f596f752063616e6e6f74206f636375707920616e206974656d207768696c652060448201527034ba1034b99037b71030bab1ba34b7b71760791b606482015260840161083c565b336000908152600a60205260409020541561239757336000908152600a6020526040812054600c9061235e906001906148a6565b8154811061236e5761236e6148b9565b906000526020600020906008020160070160146101000a81548160ff0219169083151502179055505b336000908152600a602052604090208190556001600c6123b782846148a6565b815481106123c7576123c76148b9565b906000526020600020906008020160070160146101000a81548160ff02191690831515021790555050565b60606001805461071e9061485c565b6040516331a9108f60e11b8152600481018290523090636352211e90602401602060405180830381865afa15801561243d573d6000803e3d6000fd5b505050506040513d601f19601f82011682018060405250810190612461919061491c565b6001600160a01b0316336001600160a01b0316146124fa5760405162461bcd60e51b815260206004820152604a60248201527f596f752063616e6e6f742063616e63656c207468652061756374696f6e206f6660448201527f2074686973206974656d2c206265636175736520796f7520617265206e6f74206064820152693a34329037bbb732b91760b11b608482015260a40161083c565b600c6125076001836148a6565b81548110612517576125176148b9565b600091825260209091206005600890920201015460ff1615156001146125b55760405162461bcd60e51b815260206004820152604760248201527f4974656d206d757374206265206f6e2061756374696f6e206265666f7265206960448201527f742063616e2062652063616e63656c65642c2063757272656e746c79206974206064820152666973206e6f742160c81b608482015260a40161083c565b6000600c6125c46001846148a6565b815481106125d4576125d46148b9565b906000526020600020906008020160060154111561265357612600600a6000600c611bed6001866148a6565b600a6000600c6126116001866148a6565b81548110612621576126216148b9565b60009182526020808320600760089093020191909101546001600160a01b031683528201929092526040019020600201555b6000600c6126626001846148a6565b81548110612672576126726148b9565b60009182526020822060089190910201600501805460ff191692151592909217909155600c6126a26001846148a6565b815481106126b2576126b26148b9565b60009182526020822060066008909202010191909155600c6126d56001846148a6565b815481106126e5576126e56148b9565b6000918252602080832060089290920290910160070180546001600160a01b0319166001600160a01b03949094169390931790925560408051608080825260119082015270105d58dd1a5bdb8810d85b98d95b1b1959607a1b60a08201523393810193909352820181905260608201528190600080516020614bdc8339815191529060c001611d6d565b61277a338383613be4565b5050565b600a60205260009081526040902080546001820180549192916127a09061485c565b80601f01602080910402602001604051908101604052809291908181526020018280546127cc9061485c565b80156128195780601f106127ee57610100808354040283529160200191612819565b820191906000526020600020905b8154815290600101906020018083116127fc57829003601f168201915b5050505050908060020154905083565b600d546001600160a01b031633146128835760405162461bcd60e51b815260206004820152601f60248201527f4f6e6c79206f776e65722063616e206372656174652070726f70657274792e00604482015260640161083c565b600b826040516128939190614952565b9081526040519081900360200190205460ff16156129235760405162461bcd60e51b815260206004820152604160248201527f546869732043494420697320616c72656164792065786973742c20796f75206360448201527f616e6e6f74206372656174652073616d652070726f70657274792074776963656064820152601760f91b608482015260a40161083c565b600e54600c54106129955760405162461bcd60e51b815260206004820152603660248201527f596f752063616e6e6f7420637265617465206d6f72652070726f70657274696560448201527539971026b0bc1039bab838363c903932b0b1b432b21760511b606482015260840161083c565b600c546000906129a690600161496e565b90506129b23382613cb2565b6040805161012081018252858152602081018590529081018390526000606082018190526080820181905260a0820181905260c0820181905260e082018190526101008201819052600c80546001810182559152815182916008027fdf6966c971051c3d54ec59162606531493a51404a002842f56009d7e5cf4a8c701908190612a3c90826149cf565b5060208201516001820190612a5190826149cf565b5060408201516002820190612a6690826149cf565b50606082015160038201805491151560ff199283161790556080830151600483015560a08301516005830180549115159190921617905560c0820151600682015560e082015160079091018054610100909301511515600160a01b026001600160a81b03199093166001600160a01b0390921691909117919091179055604051600190600b90612af7908790614952565b9081526040805160209281900383018120805460ff19169415159490941790935560808084526007908401526618dc99585d195960ca1b60a08401523391830191909152600090820181905260608201528290600080516020614bdc8339815191529060c00160405180910390a25050505050565b612b7633836139a0565b612b925760405162461bcd60e51b815260040161083c906148cf565b611eed84848484613e4b565b600c612bab6001836148a6565b81548110612bbb57612bbb6148b9565b600091825260209091206003600890920201015460ff161515600114612c3a5760405162461bcd60e51b815260206004820152602e60248201527f4974656d2073686f756c64206265206f6e2073616c652066697273742c20746f60448201526d1031329031b0b731b2b63632b21760911b606482015260840161083c565b6040516331a9108f60e11b8152600481018290523090636352211e90602401602060405180830381865afa158015612c76573d6000803e3d6000fd5b505050506040513d601f19601f82011682018060405250810190612c9a919061491c565b6001600160a01b0316336001600160a01b031614612d305760405162461bcd60e51b815260206004820152604760248201527f596f752063616e6e6f742063616e63656c207468652073616c65206f6620746860448201527f6973206974656d2c206265636175736520796f7520617265206e6f74207468656064820152661037bbb732b91760c91b608482015260a40161083c565b6000600c612d3f6001846148a6565b81548110612d4f57612d4f6148b9565b60009182526020822060089190910201600301805460ff191692151592909217909155600c612d7f6001846148a6565b81548110612d8f57612d8f6148b9565b6000918252602080832060046008909302019190910192909255604080516080808252600e908201526d14d85b194810d85b98d95b1b195960921b60a08201523393810193909352820181905260608201528190600080516020614bdc8339815191529060c001611d6d565b6060612e06826138b1565b6000612e1d60408051602081019091526000815290565b90506000815111612e3d5760405180602001604052806000815250612e68565b80612e4784613e7e565b604051602001612e58929190614a8f565b6040516020818303038152906040525b9392505050565b336000908152600a60205260408120549003612ee15760405162461bcd60e51b815260206004820152602b60248201527f596f75206d757374206f636375707920612070726f706572747920666972737460448201526a103a37903b30b1b0ba329760a91b606482015260840161083c565b336000908152600a6020526040812054600c90612f00906001906148a6565b81548110612f1057612f106148b9565b600091825260208083206007600890930201919091018054931515600160a01b0260ff60a01b1990941693909317909255338152600a9091526040812055565b336000908152600a6020526040902060010161277a82826149cf565b6040516331a9108f60e11b8152600481018290523090636352211e90602401602060405180830381865afa158015612fa8573d6000803e3d6000fd5b505050506040513d601f19601f82011682018060405250810190612fcc919061491c565b6001600160a01b0316336001600160a01b03161461303c5760405162461bcd60e51b815260206004820152602760248201527f4f6e6c79206f776e6572206f662074686973206974656d2063616e20707574206044820152666f6e2073616c6560c81b606482015260840161083c565b600c6130496001836148a6565b81548110613059576130596148b9565b6000918252602090912060089091020160070154600160a01b900460ff16156130ea5760405162461bcd60e51b815260206004820152603960248201527f596f75206d757374207661636174652069742066697273742c207468656e207960448201527f6f752063616e20707574206974206f6e2061756374696f6e2e00000000000000606482015260840161083c565b600c6130f76001836148a6565b81548110613107576131076148b9565b600091825260209091206005600890920201015460ff161561316b5760405162461bcd60e51b815260206004820181905260248201527f54686973206974656d20697320616c7265616479206f6e2061756374696f6e21604482015260640161083c565b6001600c61317982846148a6565b81548110613189576131896148b9565b60009182526020822060089190910201600501805460ff191692151592909217909155600c6131b96001846148a6565b815481106131c9576131c96148b9565b9060005260206000209060080201600601819055506131e830826107c8565b604080516080808252600e908201526d41756374696f6e2053746172747360901b60a0820152336020820152600091810182905260608101919091528190600080516020614bdc8339815191529060c001611d6d565b6040516331a9108f60e11b8152600481018290523090636352211e90602401602060405180830381865afa15801561327a573d6000803e3d6000fd5b505050506040513d601f19601f8201168201806040525081019061329e919061491c565b6001600160a01b031633036132f55760405162461bcd60e51b815260206004820152601d60248201527f596f752063616e6e6f742062757920796f7572206f776e206974656d21000000604482015260640161083c565b600c6133026001836148a6565b81548110613312576133126148b9565b600091825260209091206003600890920201015460ff16151560011461338c5760405162461bcd60e51b815260206004820152602960248201527f4974656d2073686f756c64206265206f6e2073616c6520666f7220796f7520746044820152683790313abc9034ba1760b91b606482015260840161083c565b34600c61339a6001846148a6565b815481106133aa576133aa6148b9565b90600052602060002090600802016004015411156134235760405162461bcd60e51b815260206004820152603060248201527f54686520616d6f756e7420796f7520747269656420746f206275792c2069732060448201526f3632b9b9903a3430b710383934b1b29760811b606482015260840161083c565b60405163020604bf60e21b8152600481018290523090819063081812fc90602401602060405180830381865afa158015613461573d6000803e3d6000fd5b505050506040513d601f19601f82011682018060405250810190613485919061491c565b6001600160a01b03161461351a5760405162461bcd60e51b815260206004820152605060248201527f53656c6c657220646964206e6f7420676976652074686520616c6c6f77616e6360448201527f6520666f7220757320746f2073656c6c2074686973206974656d2c20636f6e7460648201526f30b1ba103bb4ba341039b2b63632b91760811b608482015260a40161083c565b6040516331a9108f60e11b8152600481018290526000903090636352211e90602401602060405180830381865afa158015613559573d6000803e3d6000fd5b505050506040513d601f19601f8201168201806040525081019061357d919061491c565b604051632142170760e11b81526001600160a01b03821660048201523360248201526044810184905290915030906342842e0e90606401600060405180830381600087803b1580156135ce57600080fd5b505af11580156135e2573d6000803e3d6000fd5b505050506000600c6001846135f791906148a6565b81548110613607576136076148b9565b60009182526020822060089190910201600301805460ff191692151592909217909155600c6136376001856148a6565b81548110613647576136476148b9565b90600052602060002090600802016004018190555061368e600a6000836001600160a01b03166001600160a01b031681526020019081526020016000206002015434613981565b6001600160a01b0382166000908152600a6020526040812060020191909155600c6136ba6001856148a6565b815481106136ca576136ca6148b9565b9060005260206000209060080201600601541115613749576136f6600a6000600c6109cc6001876148a6565b600a6000600c6137076001876148a6565b81548110613717576137176148b9565b60009182526020808320600760089093020191909101546001600160a01b031683528201929092526040019020600201555b6000600c6137586001856148a6565b81548110613768576137686148b9565b60009182526020822060066008909202010191909155600c61378b6001856148a6565b8154811061379b5761379b6148b9565b6000918252602082206008919091020160070180546001600160a01b0319166001600160a01b039390931692909217909155600c6137da6001856148a6565b815481106137ea576137ea6148b9565b600091825260209182902060089190910201600501805460ff191692151592909217909155604080516080808252600490820152631cdbdb1960e21b60a08201526001600160a01b0384169281019290925233908201523460608201528290600080516020614bdc8339815191529060c001610b68565b60006001600160e01b031982166380ac58cd60e01b148061389257506001600160e01b03198216635b5e139f60e01b145b8061070957506301ffc9a760e01b6001600160e01b0319831614610709565b6000818152600260205260409020546001600160a01b03166139105760405162461bcd60e51b8152602060048201526018602482015277115490cdcc8c4e881a5b9d985b1a59081d1bdad95b88125160421b604482015260640161083c565b50565b600081815260046020526040902080546001600160a01b0319166001600160a01b038416908117909155819061394882611ef3565b6001600160a01b03167f8c5be1e5ebec7d5bd14f71427d1e84f3dd0314c0f7b2291e5b200ac8c7c3b92560405160405180910390a45050565b60008061398e838561496e565b905083811015612e6857612e68614abe565b6000806139ac83611ef3565b9050806001600160a01b0316846001600160a01b031614806139f357506001600160a01b0380821660009081526005602090815260408083209388168352929052205460ff165b80613a175750836001600160a01b0316613a0c846107a1565b6001600160a01b0316145b949350505050565b826001600160a01b0316613a3282611ef3565b6001600160a01b031614613a585760405162461bcd60e51b815260040161083c90614ad4565b6001600160a01b038216613aba5760405162461bcd60e51b8152602060048201526024808201527f4552433732313a207472616e7366657220746f20746865207a65726f206164646044820152637265737360e01b606482015260840161083c565b613ac78383836001613f11565b826001600160a01b0316613ada82611ef3565b6001600160a01b031614613b005760405162461bcd60e51b815260040161083c90614ad4565b600081815260046020908152604080832080546001600160a01b03199081169091556001600160a01b0387811680865260038552838620805460001901905590871680865283862080546001019055868652600290945282852080549092168417909155905184937fddf252ad1be2c89b69c2b068fc378daa952ba7f163c4a11628f55a4df523b3ef91a4505050565b600082821115613bda5760405162461bcd60e51b81526020600482015260156024820152747375627472616374696f6e20756e646572666c6f7760581b604482015260640161083c565b612e6882846148a6565b816001600160a01b0316836001600160a01b031603613c455760405162461bcd60e51b815260206004820152601960248201527f4552433732313a20617070726f766520746f2063616c6c657200000000000000604482015260640161083c565b6001600160a01b03838116600081815260056020908152604080832094871680845294825291829020805460ff191686151590811790915591519182527f17307eab39ab6107e8899845ad3d59bd9653f200f220920489ca2b5937696c31910160405180910390a3505050565b6001600160a01b038216613d085760405162461bcd60e51b815260206004820181905260248201527f4552433732313a206d696e7420746f20746865207a65726f2061646472657373604482015260640161083c565b6000818152600260205260409020546001600160a01b031615613d6d5760405162461bcd60e51b815260206004820152601c60248201527f4552433732313a20746f6b656e20616c7265616479206d696e74656400000000604482015260640161083c565b613d7b600083836001613f11565b6000818152600260205260409020546001600160a01b031615613de05760405162461bcd60e51b815260206004820152601c60248201527f4552433732313a20746f6b656e20616c7265616479206d696e74656400000000604482015260640161083c565b6001600160a01b038216600081815260036020908152604080832080546001019055848352600290915280822080546001600160a01b0319168417905551839291907fddf252ad1be2c89b69c2b068fc378daa952ba7f163c4a11628f55a4df523b3ef908290a45050565b613e56848484613a1f565b613e6284848484614045565b611eed5760405162461bcd60e51b815260040161083c90614b19565b60606000613e8b83614146565b600101905060008167ffffffffffffffff811115613eab57613eab614645565b6040519080825280601f01601f191660200182016040528015613ed5576020820181803683370190505b5090508181016020015b600019016f181899199a1a9b1b9c1cb0b131b232b360811b600a86061a8153600a8504945084613edf57509392505050565b6001811115613f805760405162461bcd60e51b815260206004820152603560248201527f455243373231456e756d657261626c653a20636f6e7365637574697665207472604482015274185b9cd9995c9cc81b9bdd081cdd5c1c1bdc9d1959605a1b606482015260840161083c565b816001600160a01b038516613fdc57613fd781600880546000838152600960205260408120829055600182018355919091527ff3f7a9fe364faab93b216da50a3214154f22a0a2b415b23a84c8169e8b636ee30155565b613fff565b836001600160a01b0316856001600160a01b031614613fff57613fff858261421e565b6001600160a01b03841661401b57614016816142bb565b61403e565b846001600160a01b0316846001600160a01b03161461403e5761403e848261436a565b5050505050565b60006001600160a01b0384163b1561413b57604051630a85bd0160e11b81526001600160a01b0385169063150b7a0290614089903390899088908890600401614b6b565b6020604051808303816000875af19250505080156140c4575060408051601f3d908101601f191682019092526140c191810190614ba8565b60015b614121573d8080156140f2576040519150601f19603f3d011682016040523d82523d6000602084013e6140f7565b606091505b5080516000036141195760405162461bcd60e51b815260040161083c90614b19565b805181602001fd5b6001600160e01b031916630a85bd0160e11b149050613a17565b506001949350505050565b60008072184f03e93ff9f4daa797ed6e38ed64bf6a1f0160401b83106141855772184f03e93ff9f4daa797ed6e38ed64bf6a1f0160401b830492506040015b6d04ee2d6d415b85acef810000000083106141b1576d04ee2d6d415b85acef8100000000830492506020015b662386f26fc1000083106141cf57662386f26fc10000830492506010015b6305f5e10083106141e7576305f5e100830492506008015b61271083106141fb57612710830492506004015b6064831061420d576064830492506002015b600a83106107095760010192915050565b6000600161422b84612029565b61423591906148a6565b600083815260076020526040902054909150808214614288576001600160a01b03841660009081526006602090815260408083208584528252808320548484528184208190558352600790915290208190555b5060009182526007602090815260408084208490556001600160a01b039094168352600681528383209183525290812055565b6008546000906142cd906001906148a6565b600083815260096020526040812054600880549394509092849081106142f5576142f56148b9565b906000526020600020015490508060088381548110614316576143166148b9565b600091825260208083209091019290925582815260099091526040808220849055858252812055600880548061434e5761434e614bc5565b6001900381819060005260206000200160009055905550505050565b600061437583612029565b6001600160a01b039093166000908152600660209081526040808320868452825280832085905593825260079052919091209190915550565b6001600160e01b03198116811461391057600080fd5b6000602082840312156143d657600080fd5b8135612e68816143ae565b60005b838110156143fc5781810151838201526020016143e4565b50506000910152565b6000815180845261441d8160208601602086016143e1565b601f01601f19169290920160200192915050565b602081526000612e686020830184614405565b60006020828403121561445657600080fd5b5035919050565b6001600160a01b038116811461391057600080fd5b6000806040838503121561448557600080fd5b82356144908161445d565b946020939093013593505050565b6000806000606084860312156144b357600080fd5b83356144be8161445d565b925060208401356144ce8161445d565b929592945050506040919091013590565b60006101208083526144f38184018d614405565b90508281036020840152614507818c614405565b9050828103604084015261451b818b614405565b98151560608401525050608081019590955292151560a085015260c08401919091526001600160a01b031660e08301521515610100909101529392505050565b6000806040838503121561456e57600080fd5b50508035926020909101359150565b60006020828403121561458f57600080fd5b8135612e688161445d565b6020808252825182820181905260009190848201906040850190845b818110156145d2578351835292840192918401916001016145b6565b50909695505050505050565b600080604083850312156145f157600080fd5b82356145fc8161445d565b91506020830135801515811461461157600080fd5b809150509250929050565b8381526060602082015260006146356060830185614405565b9050826040830152949350505050565b634e487b7160e01b600052604160045260246000fd5b600067ffffffffffffffff8084111561467657614676614645565b604051601f8501601f19908116603f0116810190828211818310171561469e5761469e614645565b816040528093508581528686860111156146b757600080fd5b858560208301376000602087830101525050509392505050565b600082601f8301126146e257600080fd5b612e688383356020850161465b565b60008060006060848603121561470657600080fd5b833567ffffffffffffffff8082111561471e57600080fd5b61472a878388016146d1565b9450602086013591508082111561474057600080fd5b61474c878388016146d1565b9350604086013591508082111561476257600080fd5b5061476f868287016146d1565b9150509250925092565b6000806000806080858703121561478f57600080fd5b843561479a8161445d565b935060208501356147aa8161445d565b925060408501359150606085013567ffffffffffffffff8111156147cd57600080fd5b8501601f810187136147de57600080fd5b6147ed8782356020840161465b565b91505092959194509250565b6000806040838503121561480c57600080fd5b82356148178161445d565b915060208301356146118161445d565b60006020828403121561483957600080fd5b813567ffffffffffffffff81111561485057600080fd5b613a17848285016146d1565b600181811c9082168061487057607f821691505b60208210810361216b57634e487b7160e01b600052602260045260246000fd5b634e487b7160e01b600052601160045260246000fd5b8181038181111561070957610709614890565b634e487b7160e01b600052603260045260246000fd5b6020808252602d908201527f4552433732313a2063616c6c6572206973206e6f7420746f6b656e206f776e6560408201526c1c881bdc88185c1c1c9bdd9959609a1b606082015260800190565b60006020828403121561492e57600080fd5b8151612e688161445d565b60006001820161494b5761494b614890565b5060010190565b600082516149648184602087016143e1565b9190910192915050565b8082018082111561070957610709614890565b601f8211156108dd57600081815260208120601f850160051c810160208610156149a85750805b601f850160051c820191505b818110156149c7578281556001016149b4565b505050505050565b815167ffffffffffffffff8111156149e9576149e9614645565b6149fd816149f7845461485c565b84614981565b602080601f831160018114614a325760008415614a1a5750858301515b600019600386901b1c1916600185901b1785556149c7565b600085815260208120601f198616915b82811015614a6157888601518255948401946001909101908401614a42565b5085821015614a7f5787850151600019600388901b60f8161c191681555b5050505050600190811b01905550565b60008351614aa18184602088016143e1565b835190830190614ab58183602088016143e1565b01949350505050565b634e487b7160e01b600052600160045260246000fd5b60208082526025908201527f4552433732313a207472616e736665722066726f6d20696e636f72726563742060408201526437bbb732b960d91b606082015260800190565b60208082526032908201527f4552433732313a207472616e7366657220746f206e6f6e20455243373231526560408201527131b2b4bb32b91034b6b83632b6b2b73a32b960711b606082015260800190565b6001600160a01b0385811682528416602082015260408101839052608060608201819052600090614b9e90830184614405565b9695505050505050565b600060208284031215614bba57600080fd5b8151612e68816143ae565b634e487b7160e01b600052603160045260246000fdfee08c5ec3e4eec30f43f959991338b87e61cc24376dfe3fc0e156daee7a4f7cf8a26469706673582212200fa48d8dcabc2fad5a794e4f84468120e20e36cab4cbf6fb4c12e828269e4a8164736f6c63430008130033",
  "immutableReferences": {},
  "source": "// SPDX-License-Identifier: MIT\npragma solidity 0.8.19;\n\nimport \"@openzeppelin/contracts/token/ERC721/extensions/ERC721Enumerable.sol\";\n\ncontract nftContract is ERC721Enumerable {\n    struct nftData {\n        string name;\n        string cid;\n        string rarity;\n        bool isOnSale;\n        uint256 sellPrice;\n        bool isBiddable;\n        uint256 maxBid;\n        address maxBidder;\n        bool isOccupied;\n    }\n\n    struct userData {\n        uint256 property;\n        string username;\n        uint256 userBalance;\n    }\n\n    event nftTransaction(\n        uint256 indexed id,\n        string transactionType,\n        address fromAddress,\n        address toAddress,\n        uint256 value\n    );\n\n    mapping(address => userData) public users;\n    mapping(string => bool) isExist;\n    nftData[] public nfts;\n\n    address public owner;\n    uint256 public maxSupply;\n\n    constructor() ERC721(\"nftContract\", \"NFTC\") {\n        owner = msg.sender;\n        maxSupply = 100;\n    }\n\n    function setUsername(string memory _username) public {\n        users[msg.sender].username = _username;\n    }\n\n    function occupyProperty(uint256 _propertyTokenId) public {\n        require(\n            _propertyTokenId == 0 ||\n                (ownerOf(_propertyTokenId) == msg.sender)\n        ,\"you must be the owner\");\n        \n        require(_propertyTokenId == 0 || nfts[_propertyTokenId - 1].isOnSale == false, \"property on sale, you cannot occupy it!\");\n        require(_propertyTokenId == 0 || nfts[_propertyTokenId - 1].isBiddable == false, \"property on bid, you cannot occupy it!\");\n\n        if (users[msg.sender].property != 0) {\n            nfts[users[msg.sender].property - 1].isOccupied = false;\n        }\n\n        if (_propertyTokenId != 0) {\n            nfts[_propertyTokenId - 1].isOccupied = true;\n        }\n\n        users[msg.sender].property = _propertyTokenId;\n    }\n\n    function occupySingleProperty(uint256 _tokenId) public {\n        require(ownerOf(_tokenId) == msg.sender, \"You are not the owner of this item, so you cannot occupy it.\");\n        require(nfts[_tokenId - 1].isOnSale == false, \"You cannot occupy an item while it is on sale.\");\n        require(nfts[_tokenId - 1].isBiddable == false, \"You cannot occupy an item while it is on auction.\");\n\n        if (users[msg.sender].property != 0) {\n            nfts[users[msg.sender].property - 1].isOccupied = false;\n        }\n        users[msg.sender].property = _tokenId;\n        nfts[_tokenId - 1].isOccupied = true;\n    }\n\n    function vacateProperty() public {\n        require(users[msg.sender].property != 0, \"You must occupy a property first to vacate.\");\n        nfts[users[msg.sender].property - 1].isOccupied = false;\n        users[msg.sender].property = 0;\n    }\n\n    function tokensOfOwner(address _owner)\n        public\n        view\n        returns (uint256[] memory)\n    {\n        uint256 tokenCount = balanceOf(_owner);\n\n        if (tokenCount == 0) {\n            return new uint256[](0);\n        } else {\n            uint256[] memory result = new uint256[](tokenCount);\n            for (uint256 i = 0; i < tokenCount; i++) {\n                result[i] = tokenOfOwnerByIndex(_owner, i);\n            }\n            return result;\n        }\n    }\n\n    function putOnSale(uint256 _tokenId, uint256 _sellPrice) public {\n      \n        require(msg.sender == this.ownerOf(_tokenId), \"You cannot put this item on sale, because you are not the owner of it.\");\n        require(nfts[_tokenId - 1].isOnSale == false, \"Item is already on sale!\");\n        require(nfts[_tokenId - 1].isOccupied == false, \"You must vacate it first, then you can sell it.\" );\n        \n        nfts[_tokenId - 1].isOnSale = true;\n        nfts[_tokenId - 1].sellPrice = _sellPrice; \n        approve(address(this), _tokenId);\n\n        emit nftTransaction(\n            _tokenId,\n            \"On Sale\",\n            msg.sender,\n            address(0x0),\n            _sellPrice\n        ); \n    }\n\n    function cancelSale(uint256 _tokenId) public {\n        require(nfts[_tokenId - 1].isOnSale == true, \"Item should be on sale first, to be cancelled.\");\n        require(msg.sender == this.ownerOf(_tokenId), \"You cannot cancel the sale of this item, because you are not the owner.\");\n        \n        nfts[_tokenId - 1].isOnSale = false; \n        nfts[_tokenId - 1].sellPrice = 0; \n\n        emit nftTransaction(\n            _tokenId,\n            \"Sale Cancelled\",\n            msg.sender,\n            address(0x0),\n            0\n        ); \n    }\n\n    function buyFromSale(uint256 _tokenId) public payable {\n       \n        require(msg.sender != this.ownerOf(_tokenId), \"You cannot buy your own item!\");\n        \n        require(nfts[_tokenId - 1].isOnSale == true, \"Item should be on sale for you to buy it.\");\n       \n        require (nfts[_tokenId - 1].sellPrice <= msg.value, \"The amount you tried to buy, is less than price.\");\n       \n        require(this.getApproved(_tokenId) == address(this), \"Seller did not give the allowance for us to sell this item, contact with seller.\");\n        address sellerAddress = this.ownerOf(_tokenId);\n        this.safeTransferFrom(sellerAddress, msg.sender, _tokenId);\n        nfts[_tokenId - 1].isOnSale = false; \n        nfts[_tokenId - 1].sellPrice = 0; \n        users[sellerAddress].userBalance = add256(users[sellerAddress].userBalance, msg.value); \n\n        \n        if (nfts[_tokenId - 1].maxBid > 0) {\n            users[nfts[_tokenId - 1].maxBidder].userBalance = add256(users[nfts[_tokenId - 1].maxBidder].userBalance ,  nfts[_tokenId - 1].maxBid); \n        }\n        nfts[_tokenId - 1].maxBid = 0;\n        nfts[_tokenId - 1].maxBidder = address(0x0);\n        nfts[_tokenId - 1].isBiddable = false; \n\n        emit nftTransaction(\n            _tokenId,\n            \"sold\",\n            sellerAddress,\n            msg.sender,\n            msg.value\n        );\n    }\n\n    function putOnAuction(uint256 _tokenId) public {\n\n        \n        require(msg.sender == this.ownerOf(_tokenId), \"Only owner of this item can put on sale\" );\n        require(nfts[_tokenId - 1].isOccupied == false,  \"You must vacate it first, then you can put it on auction.\");\n        require(nfts[_tokenId - 1].isBiddable == false, \"This item is already on auction!\");\n        \n        nfts[_tokenId - 1].isBiddable = true; \n        nfts[_tokenId - 1].maxBid = 0; \n        approve(address(this), _tokenId);\n\n        emit nftTransaction(\n            _tokenId,\n            \"Auction Starts\",\n            msg.sender,\n            address(0x0),\n            0\n        ); \n    }\n\n    function cancelAuction(uint256 _tokenId) public {\n        require(msg.sender == this.ownerOf(_tokenId), \"You cannot cancel the auction of this item, because you are not the owner.\");\n        require(nfts[_tokenId - 1].isBiddable == true, \"Item must be on auction before it can be canceled, currently it is not!\");\n        \n        if (nfts[_tokenId - 1].maxBid > 0) {\n            users[nfts[_tokenId - 1].maxBidder].userBalance = add256(users[nfts[_tokenId - 1].maxBidder].userBalance, nfts[_tokenId - 1].maxBid);\n        }\n        nfts[_tokenId - 1].isBiddable = false; \n        nfts[_tokenId - 1].maxBid = 0; \n        nfts[_tokenId - 1].maxBidder = address(0x0); \n\n        emit nftTransaction(\n            _tokenId,\n            \"Auction Cancelled\",\n            msg.sender,\n            address(0x0),\n            0\n        ); \n    }\n\n    function bid(uint256 _tokenId) public payable {\n        require(msg.value > 0, \"You did not send any money\");\n        require(nfts[_tokenId - 1].isBiddable == true,\"Item you tried to bid, is not biddable!\");\n        require(msg.value >= nfts[_tokenId - 1].maxBid, \"The amount you tried to bid, is less than current max bid.\");\n        require(msg.sender != this.ownerOf(_tokenId), \"You cannot bid your own item.\");\n       \n        if (nfts[_tokenId - 1].maxBid > 0) {\n            users[nfts[_tokenId - 1].maxBidder].userBalance = add256(users[nfts[_tokenId - 1].maxBidder].userBalance, nfts[_tokenId - 1].maxBid); \n        }\n        nfts[_tokenId - 1].maxBid = msg.value;\n        nfts[_tokenId - 1].maxBidder = msg.sender;\n\n        emit nftTransaction(\n            _tokenId,\n            \"Bidded\",\n            msg.sender,\n            ownerOf(_tokenId),\n            msg.value\n        ); \n    }\n\n    function acceptHighestBid(uint256 _tokenId) public {\n \n        require(msg.sender == this.ownerOf(_tokenId), \"You need to be owner of this item, to accept its highest bid.\");\n        require(nfts[_tokenId - 1].isBiddable == true , \"Item should be biddable for you to accept its highest bid.\");\n        require(nfts[_tokenId - 1].maxBid > 0 ,\"Max bid must be more than 0 to accept it, currently it is not!\");\n        require(nfts[_tokenId - 1].maxBidder != msg.sender, \"Max bidder cannot be the same person as seller!\");\n\n        address buyer = nfts[_tokenId - 1].maxBidder;\n        uint256 soldValue = nfts[_tokenId - 1].maxBid;\n        this.safeTransferFrom(\n            msg.sender,\n            nfts[_tokenId - 1].maxBidder,\n            _tokenId\n        ); \n        users[msg.sender].userBalance = add256(users[msg.sender].userBalance, nfts[_tokenId - 1].maxBid); \n        nfts[_tokenId - 1].maxBid = 0; \n        nfts[_tokenId - 1].maxBidder = address(0x0); \n        nfts[_tokenId - 1].isBiddable = false; \n        nfts[_tokenId - 1].isOnSale = false; \n        nfts[_tokenId - 1].sellPrice = 0; \n\n        emit nftTransaction(\n            _tokenId,\n            \"Sold From Auction\",\n            msg.sender,\n            buyer,\n            soldValue\n        );\n    }\n\n    function withdrawBid(uint256 _tokenId) public {\n\n        require(msg.sender == nfts[_tokenId - 1].maxBidder, \"You must be the max bidder to withdraw your bid!\");\n        uint256 withdrawnValue = nfts[_tokenId - 1].maxBid;\n        users[nfts[_tokenId - 1].maxBidder].userBalance = add256(users[nfts[_tokenId - 1].maxBidder].userBalance, nfts[_tokenId - 1].maxBid);\n        nfts[_tokenId - 1].maxBid = 0; \n        nfts[_tokenId - 1].maxBidder = address(0x0); \n\n        emit nftTransaction(\n            _tokenId,\n            \"Bid Withdrawn\",\n            msg.sender,\n            address(0x0),\n            withdrawnValue\n        ); \n    }\n\n    function withdrawMoney(uint256 _amount) public {\n\n        require(users[msg.sender].userBalance >= _amount, \"You do not have enough balance to withdraw this amount\");\n\n        uint initialBalance = users[msg.sender].userBalance;\n        users[msg.sender].userBalance = sub256(initialBalance, _amount);\n        address payable recipient = payable(msg.sender);\n        recipient.transfer(_amount);\n    }\n\n\n    function createProperty(\n        string memory _name,\n        string memory _cid,\n        string memory _rarity\n    ) public {\n        // Original function: createCloth\n        require(owner == msg.sender, \"Only owner can create property.\");\n        require(isExist[_cid] == false, \"This CID is already exist, you cannot create same property twice.\");\n        require(nfts.length < maxSupply, \"You cannot create more properties. Max supply reached.\");\n\n        uint256 tokenId = nfts.length + 1;\n        _mint(msg.sender, tokenId);\n        nftData memory newProperty = nftData({\n            name: _name,\n            cid: _cid,\n            rarity: _rarity,\n            isOnSale: false,\n            sellPrice: 0,\n            isBiddable: false,\n            maxBid: 0,\n            maxBidder: address(0x0),\n            isOccupied: false\n        });\n\n        nfts.push(newProperty);\n        isExist[_cid] = true;\n\n        emit nftTransaction(\n            tokenId,\n            \"created\",\n            msg.sender,\n            address(0x0),\n            0\n        );\n    }\n\n    function setMaxSupply(uint256 _maxSupply) public {\n        // Original function: setMaxSupply\n        require(owner == msg.sender, \"Only owner can set max supply.\");\n        require(nfts.length < _maxSupply, \"You cannot set max supply less than created properties.\");\n        maxSupply = _maxSupply;\n    }\n\n    function add256(uint256 _a, uint256 _b) private pure returns (uint256) {\n        // Original function: add256\n        uint256 c = _a + _b;\n        assert(c >= _a);\n        return c;\n    }\n\n    function sub256(uint256 a, uint256 b) internal pure returns (uint) {\n        require(b <= a, \"subtraction underflow\");\n        return a - b;\n    }\n}\n\n",
  "sourcePath": "/home/rrankpyramid/Work/ETH/JEState/truffle/contracts/NFT.sol",
  "compiler": {
    "name": "solc",
    "version": "0.8.19+commit.7dd6d404.Emscripten.clang"
  },
  "schemaVersion": "3.4.13",
  "updatedAt": "2023-04-19T10:42:41.467Z",
  "networkType": "ethereum",
  "devdoc": {
    "events": {
      "Approval(address,address,uint256)": {
        "details": "Emitted when `owner` enables `approved` to manage the `tokenId` token."
      },
      "ApprovalForAll(address,address,bool)": {
        "details": "Emitted when `owner` enables or disables (`approved`) `operator` to manage all of its assets."
      },
      "Transfer(address,address,uint256)": {
        "details": "Emitted when `tokenId` token is transferred from `from` to `to`."
      }
    },
    "kind": "dev",
    "methods": {
      "approve(address,uint256)": {
        "details": "See {IERC721-approve}."
      },
      "balanceOf(address)": {
        "details": "See {IERC721-balanceOf}."
      },
      "getApproved(uint256)": {
        "details": "See {IERC721-getApproved}."
      },
      "isApprovedForAll(address,address)": {
        "details": "See {IERC721-isApprovedForAll}."
      },
      "name()": {
        "details": "See {IERC721Metadata-name}."
      },
      "ownerOf(uint256)": {
        "details": "See {IERC721-ownerOf}."
      },
      "safeTransferFrom(address,address,uint256)": {
        "details": "See {IERC721-safeTransferFrom}."
      },
      "safeTransferFrom(address,address,uint256,bytes)": {
        "details": "See {IERC721-safeTransferFrom}."
      },
      "setApprovalForAll(address,bool)": {
        "details": "See {IERC721-setApprovalForAll}."
      },
      "supportsInterface(bytes4)": {
        "details": "See {IERC165-supportsInterface}."
      },
      "symbol()": {
        "details": "See {IERC721Metadata-symbol}."
      },
      "tokenByIndex(uint256)": {
        "details": "See {IERC721Enumerable-tokenByIndex}."
      },
      "tokenOfOwnerByIndex(address,uint256)": {
        "details": "See {IERC721Enumerable-tokenOfOwnerByIndex}."
      },
      "tokenURI(uint256)": {
        "details": "See {IERC721Metadata-tokenURI}."
      },
      "totalSupply()": {
        "details": "See {IERC721Enumerable-totalSupply}."
      },
      "transferFrom(address,address,uint256)": {
        "details": "See {IERC721-transferFrom}."
      }
    },
    "version": 1
  },
  "userdoc": {
    "kind": "user",
    "methods": {},
    "version": 1
  }
}